{
  "contractName": "Crowdfunding",
  "abi": [
    {
      "inputs": [],
      "stateMutability": "nonpayable",
      "type": "constructor"
    },
    {
      "inputs": [
        {
          "internalType": "string",
          "name": "_projectTitle",
          "type": "string"
        },
        {
          "internalType": "string",
          "name": "_projectDesc",
          "type": "string"
        },
        {
          "internalType": "string",
          "name": "_category",
          "type": "string"
        },
        {
          "internalType": "uint256",
          "name": "_target",
          "type": "uint256"
        },
        {
          "internalType": "uint256",
          "name": "_deadline",
          "type": "uint256"
        },
        {
          "internalType": "bool",
          "name": "_emergency",
          "type": "bool"
        },
        {
          "internalType": "string",
          "name": "_thumbnail",
          "type": "string"
        }
      ],
      "name": "CreateProject",
      "outputs": [],
      "stateMutability": "nonpayable",
      "type": "function"
    },
    {
      "inputs": [
        {
          "internalType": "uint256",
          "name": "_projectId",
          "type": "uint256"
        }
      ],
      "name": "donateFund",
      "outputs": [],
      "stateMutability": "payable",
      "type": "function",
      "payable": true
    },
    {
      "inputs": [
        {
          "internalType": "uint256",
          "name": "_projectId",
          "type": "uint256"
        }
      ],
      "name": "withDrawFunds",
      "outputs": [],
      "stateMutability": "payable",
      "type": "function",
      "payable": true
    },
    {
      "inputs": [
        {
          "internalType": "uint256",
          "name": "_projectId",
          "type": "uint256"
        },
        {
          "internalType": "uint256",
          "name": "_refundId",
          "type": "uint256"
        }
      ],
      "name": "refund",
      "outputs": [],
      "stateMutability": "payable",
      "type": "function",
      "payable": true
    },
    {
      "inputs": [],
      "name": "getContractInfo",
      "outputs": [
        {
          "components": [
            {
              "internalType": "uint256",
              "name": "totalFundCollection",
              "type": "uint256"
            },
            {
              "internalType": "uint256",
              "name": "currentBalance",
              "type": "uint256"
            },
            {
              "internalType": "uint256",
              "name": "totalProjects",
              "type": "uint256"
            },
            {
              "internalType": "uint256",
              "name": "targetAchives",
              "type": "uint256"
            },
            {
              "internalType": "uint256",
              "name": "totalDonations",
              "type": "uint256"
            },
            {
              "internalType": "uint256",
              "name": "totalWithdrawamount",
              "type": "uint256"
            },
            {
              "internalType": "uint256",
              "name": "totalRefund",
              "type": "uint256"
            },
            {
              "internalType": "uint256",
              "name": "totalFeeCollected",
              "type": "uint256"
            },
            {
              "internalType": "address payable",
              "name": "owner",
              "type": "address"
            }
          ],
          "internalType": "struct Crowdfunding.ContractInfo",
          "name": "",
          "type": "tuple"
        }
      ],
      "stateMutability": "view",
      "type": "function",
      "constant": true
    },
    {
      "inputs": [
        {
          "internalType": "uint256",
          "name": "_projectId",
          "type": "uint256"
        }
      ],
      "name": "getSingleProject",
      "outputs": [
        {
          "components": [
            {
              "internalType": "uint256",
              "name": "projectID",
              "type": "uint256"
            },
            {
              "internalType": "string",
              "name": "projectTitle",
              "type": "string"
            },
            {
              "internalType": "string",
              "name": "projectDesc",
              "type": "string"
            },
            {
              "internalType": "address payable",
              "name": "projectOwner",
              "type": "address"
            },
            {
              "internalType": "string",
              "name": "category",
              "type": "string"
            },
            {
              "internalType": "uint256",
              "name": "target",
              "type": "uint256"
            },
            {
              "internalType": "uint256",
              "name": "currentBalance",
              "type": "uint256"
            },
            {
              "internalType": "uint256",
              "name": "contributorsNum",
              "type": "uint256"
            },
            {
              "internalType": "uint256",
              "name": "deadline",
              "type": "uint256"
            },
            {
              "internalType": "uint256",
              "name": "compaignStatus",
              "type": "uint256"
            },
            {
              "internalType": "bool",
              "name": "emergency",
              "type": "bool"
            },
            {
              "internalType": "string",
              "name": "thumbnail",
              "type": "string"
            }
          ],
          "internalType": "struct Crowdfunding.Projects",
          "name": "",
          "type": "tuple"
        }
      ],
      "stateMutability": "view",
      "type": "function",
      "constant": true
    },
    {
      "inputs": [],
      "name": "getProjects",
      "outputs": [
        {
          "components": [
            {
              "internalType": "uint256",
              "name": "projectID",
              "type": "uint256"
            },
            {
              "internalType": "string",
              "name": "projectTitle",
              "type": "string"
            },
            {
              "internalType": "string",
              "name": "projectDesc",
              "type": "string"
            },
            {
              "internalType": "address payable",
              "name": "projectOwner",
              "type": "address"
            },
            {
              "internalType": "string",
              "name": "category",
              "type": "string"
            },
            {
              "internalType": "uint256",
              "name": "target",
              "type": "uint256"
            },
            {
              "internalType": "uint256",
              "name": "currentBalance",
              "type": "uint256"
            },
            {
              "internalType": "uint256",
              "name": "contributorsNum",
              "type": "uint256"
            },
            {
              "internalType": "uint256",
              "name": "deadline",
              "type": "uint256"
            },
            {
              "internalType": "uint256",
              "name": "compaignStatus",
              "type": "uint256"
            },
            {
              "internalType": "bool",
              "name": "emergency",
              "type": "bool"
            },
            {
              "internalType": "string",
              "name": "thumbnail",
              "type": "string"
            }
          ],
          "internalType": "struct Crowdfunding.Projects[]",
          "name": "",
          "type": "tuple[]"
        }
      ],
      "stateMutability": "view",
      "type": "function",
      "constant": true
    },
    {
      "inputs": [
        {
          "internalType": "address",
          "name": "user",
          "type": "address"
        }
      ],
      "name": "getDonationData",
      "outputs": [
        {
          "components": [
            {
              "internalType": "uint256",
              "name": "donationAmount",
              "type": "uint256"
            },
            {
              "internalType": "string",
              "name": "projectTitle",
              "type": "string"
            },
            {
              "internalType": "uint256",
              "name": "projectDeadline",
              "type": "uint256"
            },
            {
              "internalType": "uint256",
              "name": "projectId",
              "type": "uint256"
            },
            {
              "internalType": "uint256",
              "name": "donationTime",
              "type": "uint256"
            },
            {
              "internalType": "uint256",
              "name": "donationStatus",
              "type": "uint256"
            }
          ],
          "internalType": "struct Crowdfunding.DoantionsDetails[]",
          "name": "",
          "type": "tuple[]"
        }
      ],
      "stateMutability": "view",
      "type": "function",
      "constant": true
    },
    {
      "inputs": [],
      "name": "getTotalCommission",
      "outputs": [
        {
          "internalType": "uint256",
          "name": "",
          "type": "uint256"
        }
      ],
      "stateMutability": "view",
      "type": "function",
      "constant": true
    }
  ],
  "bytecode": "0x608060405234801561001057600080fd5b5033600060080160006101000a81548173ffffffffffffffffffffffffffffffffffffffff021916908373ffffffffffffffffffffffffffffffffffffffff160217905550612da2806100646000396000f3fe6080604052600436106100865760003560e01c8063788d35d311610059578063788d35d31461012b5780637cc1f86714610147578063bfc6426614610172578063dcc60128146101af578063ebb1c9c1146101da57610086565b80630c9147221461008b57806325c8f10d146100a757806331e5901b146100e45780635af36e3e1461010f575b600080fd5b6100a560048036038101906100a09190611dfa565b610203565b005b3480156100b357600080fd5b506100ce60048036038101906100c99190611dfa565b610880565b6040516100db9190612044565b60405180910390f35b3480156100f057600080fd5b506100f9610bb2565b6040516101069190612075565b60405180910390f35b61012960048036038101906101249190612090565b610bbc565b005b61014560048036038101906101409190611dfa565b610fb6565b005b34801561015357600080fd5b5061015c6113b2565b6040516101699190612187565b60405180910390f35b34801561017e57600080fd5b50610199600480360381019061019491906121e1565b611473565b6040516101a69190612359565b60405180910390f35b3480156101bb57600080fd5b506101c46115d5565b6040516101d19190612556565b60405180910390f35b3480156101e657600080fd5b5061020160048036038101906101fc91906126d9565b61192a565b005b600060098281548110610219576102186127eb565b5b90600052602060002090600c0201600901541461026b576040517f08c379a000000000000000000000000000000000000000000000000000000000815260040161026290612877565b60405180910390fd5b34600982815481106102805761027f6127eb565b5b90600052602060002090600c02016006015461029c91906128c6565b600982815481106102b0576102af6127eb565b5b90600052602060002090600c020160060181905550600981815481106102d9576102d86127eb565b5b90600052602060002090600c020160070160008154809291906102fb9061291c565b9190505550600a60003373ffffffffffffffffffffffffffffffffffffffff1673ffffffffffffffffffffffffffffffffffffffff1681526020019081526020016000206001816001815401808255809150500390600052602060002090505034600a60003373ffffffffffffffffffffffffffffffffffffffff1673ffffffffffffffffffffffffffffffffffffffff168152602001908152602001600020600b60003373ffffffffffffffffffffffffffffffffffffffff1673ffffffffffffffffffffffffffffffffffffffff16815260200190815260200160002054815481106103ec576103eb6127eb565b5b90600052602060002090600602016000018190555080600a60003373ffffffffffffffffffffffffffffffffffffffff1673ffffffffffffffffffffffffffffffffffffffff168152602001908152602001600020600b60003373ffffffffffffffffffffffffffffffffffffffff1673ffffffffffffffffffffffffffffffffffffffff1681526020019081526020016000205481548110610492576104916127eb565b5b906000526020600020906006020160030181905550600981815481106104bb576104ba6127eb565b5b90600052602060002090600c0201600101600a60003373ffffffffffffffffffffffffffffffffffffffff1673ffffffffffffffffffffffffffffffffffffffff168152602001908152602001600020600b60003373ffffffffffffffffffffffffffffffffffffffff1673ffffffffffffffffffffffffffffffffffffffff168152602001908152602001600020548154811061055c5761055b6127eb565b5b906000526020600020906006020160010190805461057990612994565b610584929190611ba5565b5060098181548110610599576105986127eb565b5b90600052602060002090600c020160080154600a60003373ffffffffffffffffffffffffffffffffffffffff1673ffffffffffffffffffffffffffffffffffffffff168152602001908152602001600020600b60003373ffffffffffffffffffffffffffffffffffffffff1673ffffffffffffffffffffffffffffffffffffffff168152602001908152602001600020548154811061063b5761063a6127eb565b5b90600052602060002090600602016002018190555042600a60003373ffffffffffffffffffffffffffffffffffffffff1673ffffffffffffffffffffffffffffffffffffffff168152602001908152602001600020600b60003373ffffffffffffffffffffffffffffffffffffffff1673ffffffffffffffffffffffffffffffffffffffff16815260200190815260200160002054815481106106e1576106e06127eb565b5b906000526020600020906006020160040181905550600b60003373ffffffffffffffffffffffffffffffffffffffff1673ffffffffffffffffffffffffffffffffffffffff16815260200190815260200160002060008154809291906107469061291c565b919050555034600080015461075b91906128c6565b600080018190555047600060010181905550600060040160008154809291906107839061291c565b91905055506009818154811061079c5761079b6127eb565b5b90600052602060002090600c020160050154600982815481106107c2576107c16127eb565b5b90600052602060002090600c02016006015410610824576001600982815481106107ef576107ee6127eb565b5b90600052602060002090600c0201600901819055506000600301600081548092919061081a9061291c565b919050555061087d565b4260098281548110610839576108386127eb565b5b90600052602060002090600c0201600801541161087c57600260098281548110610866576108656127eb565b5b90600052602060002090600c0201600901819055505b5b50565b610888611c32565b6009828154811061089c5761089b6127eb565b5b90600052602060002090600c020160405180610180016040529081600082015481526020016001820180546108d090612994565b80601f01602080910402602001604051908101604052809291908181526020018280546108fc90612994565b80156109495780601f1061091e57610100808354040283529160200191610949565b820191906000526020600020905b81548152906001019060200180831161092c57829003601f168201915b5050505050815260200160028201805461096290612994565b80601f016020809104026020016040519081016040528092919081815260200182805461098e90612994565b80156109db5780601f106109b0576101008083540402835291602001916109db565b820191906000526020600020905b8154815290600101906020018083116109be57829003601f168201915b505050505081526020016003820160009054906101000a900473ffffffffffffffffffffffffffffffffffffffff1673ffffffffffffffffffffffffffffffffffffffff1673ffffffffffffffffffffffffffffffffffffffff168152602001600482018054610a4a90612994565b80601f0160208091040260200160405190810160405280929190818152602001828054610a7690612994565b8015610ac35780601f10610a9857610100808354040283529160200191610ac3565b820191906000526020600020905b815481529060010190602001808311610aa657829003601f168201915b505050505081526020016005820154815260200160068201548152602001600782015481526020016008820154815260200160098201548152602001600a820160009054906101000a900460ff16151515158152602001600b82018054610b2990612994565b80601f0160208091040260200160405190810160405280929190818152602001828054610b5590612994565b8015610ba25780601f10610b7757610100808354040283529160200191610ba2565b820191906000526020600020905b815481529060010190602001808311610b8557829003601f168201915b5050505050815250509050919050565b6000600c54905090565b6000600b60003373ffffffffffffffffffffffffffffffffffffffff1673ffffffffffffffffffffffffffffffffffffffff1681526020019081526020016000205411610c3e576040517f08c379a0000000000000000000000000000000000000000000000000000000008152600401610c3590612a38565b60405180910390fd5b60098281548110610c5257610c516127eb565b5b90600052602060002090600c020160080154421115610ca6576040517f08c379a0000000000000000000000000000000000000000000000000000000008152600401610c9d90612aca565b60405180910390fd5b3373ffffffffffffffffffffffffffffffffffffffff166108fc600a60003373ffffffffffffffffffffffffffffffffffffffff1673ffffffffffffffffffffffffffffffffffffffff1681526020019081526020016000208381548110610d1157610d106127eb565b5b9060005260206000209060060201600001549081150290604051600060405180830381858888f19350505050158015610d4e573d6000803e3d6000fd5b50600a60003373ffffffffffffffffffffffffffffffffffffffff1673ffffffffffffffffffffffffffffffffffffffff1681526020019081526020016000208181548110610da057610d9f6127eb565b5b90600052602060002090600602016000015460098381548110610dc657610dc56127eb565b5b90600052602060002090600c020160060154610de29190612aea565b60098381548110610df657610df56127eb565b5b90600052602060002090600c0201600601819055506001600a60003373ffffffffffffffffffffffffffffffffffffffff1673ffffffffffffffffffffffffffffffffffffffff1681526020019081526020016000208281548110610e5e57610e5d6127eb565b5b90600052602060002090600602016005018190555060098281548110610e8757610e866127eb565b5b90600052602060002090600c02016007016000815480929190610ea990612b1e565b919050555047600060010181905550600a60003373ffffffffffffffffffffffffffffffffffffffff1673ffffffffffffffffffffffffffffffffffffffff1681526020019081526020016000208181548110610f0957610f086127eb565b5b906000526020600020906006020160000154600060060154610f2b91906128c6565b60006006018190555060098281548110610f4857610f476127eb565b5b90600052602060002090600c02016005015460098381548110610f6e57610f6d6127eb565b5b90600052602060002090600c0201600601541015610fb257600060098381548110610f9c57610f9b6127eb565b5b90600052602060002090600c0201600901819055505b5050565b60098181548110610fca57610fc96127eb565b5b90600052602060002090600c020160030160009054906101000a900473ffffffffffffffffffffffffffffffffffffffff1673ffffffffffffffffffffffffffffffffffffffff163373ffffffffffffffffffffffffffffffffffffffff1614611069576040517f08c379a000000000000000000000000000000000000000000000000000000000815260040161106090612bba565b60405180910390fd5b60036009828154811061107f5761107e6127eb565b5b90600052602060002090600c02016009015414156110d2576040517f08c379a00000000000000000000000000000000000000000000000000000000081526004016110c990612c26565b60405180910390fd5b600981815481106110e6576110e56127eb565b5b90600052602060002090600c02016008015442101561113a576040517f08c379a000000000000000000000000000000000000000000000000000000000815260040161113190612c92565b60405180910390fd5b60006001151560098381548110611154576111536127eb565b5b90600052602060002090600c0201600a0160009054906101000a900460ff16151514156111c15760286103e860098481548110611194576111936127eb565b5b90600052602060002090600c0201600601546111b09190612ce1565b6111ba9190612d12565b9050611203565b600f6103e8600984815481106111da576111d96127eb565b5b90600052602060002090600c0201600601546111f69190612ce1565b6112009190612d12565b90505b6000816009848154811061121a576112196127eb565b5b90600052602060002090600c0201600601546112369190612aea565b90506009838154811061124c5761124b6127eb565b5b90600052602060002090600c020160030160009054906101000a900473ffffffffffffffffffffffffffffffffffffffff1673ffffffffffffffffffffffffffffffffffffffff166108fc829081150290604051600060405180830381858888f193505050501580156112c3573d6000803e3d6000fd5b50600060080160009054906101000a900473ffffffffffffffffffffffffffffffffffffffff1673ffffffffffffffffffffffffffffffffffffffff166108fc839081150290604051600060405180830381858888f1935050505015801561132f573d6000803e3d6000fd5b5081600c5461133e91906128c6565b600c8190555060036009848154811061135a576113596127eb565b5b90600052602060002090600c020160090181905550476000600101819055508060006005015461138a91906128c6565b600060050181905550816000600701546113a491906128c6565b600060070181905550505050565b6113ba611cab565b60006040518061012001604052908160008201548152602001600182015481526020016002820154815260200160038201548152602001600482015481526020016005820154815260200160068201548152602001600782015481526020016008820160009054906101000a900473ffffffffffffffffffffffffffffffffffffffff1673ffffffffffffffffffffffffffffffffffffffff1673ffffffffffffffffffffffffffffffffffffffff1681525050905090565b6060600a60008373ffffffffffffffffffffffffffffffffffffffff1673ffffffffffffffffffffffffffffffffffffffff168152602001908152602001600020805480602002602001604051908101604052809291908181526020016000905b828210156115ca57838290600052602060002090600602016040518060c00160405290816000820154815260200160018201805461151190612994565b80601f016020809104026020016040519081016040528092919081815260200182805461153d90612994565b801561158a5780601f1061155f5761010080835404028352916020019161158a565b820191906000526020600020905b81548152906001019060200180831161156d57829003601f168201915b50505050508152602001600282015481526020016003820154815260200160048201548152602001600582015481525050815260200190600101906114d4565b505050509050919050565b60606009805480602002602001604051908101604052809291908181526020016000905b8282101561192157838290600052602060002090600c0201604051806101800160405290816000820154815260200160018201805461163790612994565b80601f016020809104026020016040519081016040528092919081815260200182805461166390612994565b80156116b05780601f10611685576101008083540402835291602001916116b0565b820191906000526020600020905b81548152906001019060200180831161169357829003601f168201915b505050505081526020016002820180546116c990612994565b80601f01602080910402602001604051908101604052809291908181526020018280546116f590612994565b80156117425780601f1061171757610100808354040283529160200191611742565b820191906000526020600020905b81548152906001019060200180831161172557829003601f168201915b505050505081526020016003820160009054906101000a900473ffffffffffffffffffffffffffffffffffffffff1673ffffffffffffffffffffffffffffffffffffffff1673ffffffffffffffffffffffffffffffffffffffff1681526020016004820180546117b190612994565b80601f01602080910402602001604051908101604052809291908181526020018280546117dd90612994565b801561182a5780601f106117ff5761010080835404028352916020019161182a565b820191906000526020600020905b81548152906001019060200180831161180d57829003601f168201915b505050505081526020016005820154815260200160068201548152602001600782015481526020016008820154815260200160098201548152602001600a820160009054906101000a900460ff16151515158152602001600b8201805461189090612994565b80601f01602080910402602001604051908101604052809291908181526020018280546118bc90612994565b80156119095780601f106118de57610100808354040283529160200191611909565b820191906000526020600020905b8154815290600101906020018083116118ec57829003601f168201915b505050505081525050815260200190600101906115f9565b50505050905090565b600960018160018154018082558091505003906000526020600020905050600060020154600960006002015481548110611967576119666127eb565b5b90600052602060002090600c02016000018190555086600960006002015481548110611996576119956127eb565b5b90600052602060002090600c020160010190805190602001906119ba929190611d0d565b50856009600060020154815481106119d5576119d46127eb565b5b90600052602060002090600c020160020190805190602001906119f9929190611d0d565b5084600960006002015481548110611a1457611a136127eb565b5b90600052602060002090600c02016004019080519060200190611a38929190611d0d565b5083600960006002015481548110611a5357611a526127eb565b5b90600052602060002090600c02016005018190555082600960006002015481548110611a8257611a816127eb565b5b90600052602060002090600c02016008018190555033600960006002015481548110611ab157611ab06127eb565b5b90600052602060002090600c020160030160006101000a81548173ffffffffffffffffffffffffffffffffffffffff021916908373ffffffffffffffffffffffffffffffffffffffff16021790555081600960006002015481548110611b1a57611b196127eb565b5b90600052602060002090600c0201600a0160006101000a81548160ff02191690831515021790555080600960006002015481548110611b5c57611b5b6127eb565b5b90600052602060002090600c0201600b019080519060200190611b80929190611d0d565b5060006002016000815480929190611b979061291c565b919050555050505050505050565b828054611bb190612994565b90600052602060002090601f016020900481019282611bd35760008555611c21565b82601f10611be45780548555611c21565b82800160010185558215611c2157600052602060002091601f016020900482015b82811115611c20578254825591600101919060010190611c05565b5b509050611c2e9190611d93565b5090565b604051806101800160405280600081526020016060815260200160608152602001600073ffffffffffffffffffffffffffffffffffffffff168152602001606081526020016000815260200160008152602001600081526020016000815260200160008152602001600015158152602001606081525090565b6040518061012001604052806000815260200160008152602001600081526020016000815260200160008152602001600081526020016000815260200160008152602001600073ffffffffffffffffffffffffffffffffffffffff1681525090565b828054611d1990612994565b90600052602060002090601f016020900481019282611d3b5760008555611d82565b82601f10611d5457805160ff1916838001178555611d82565b82800160010185558215611d82579182015b82811115611d81578251825591602001919060010190611d66565b5b509050611d8f9190611d93565b5090565b5b80821115611dac576000816000905550600101611d94565b5090565b6000604051905090565b600080fd5b600080fd5b6000819050919050565b611dd781611dc4565b8114611de257600080fd5b50565b600081359050611df481611dce565b92915050565b600060208284031215611e1057611e0f611dba565b5b6000611e1e84828501611de5565b91505092915050565b611e3081611dc4565b82525050565b600081519050919050565b600082825260208201905092915050565b60005b83811015611e70578082015181840152602081019050611e55565b83811115611e7f576000848401525b50505050565b6000601f19601f8301169050919050565b6000611ea182611e36565b611eab8185611e41565b9350611ebb818560208601611e52565b611ec481611e85565b840191505092915050565b600073ffffffffffffffffffffffffffffffffffffffff82169050919050565b6000611efa82611ecf565b9050919050565b611f0a81611eef565b82525050565b60008115159050919050565b611f2581611f10565b82525050565b600061018083016000830151611f446000860182611e27565b5060208301518482036020860152611f5c8282611e96565b91505060408301518482036040860152611f768282611e96565b9150506060830151611f8b6060860182611f01565b5060808301518482036080860152611fa38282611e96565b91505060a0830151611fb860a0860182611e27565b5060c0830151611fcb60c0860182611e27565b5060e0830151611fde60e0860182611e27565b50610100830151611ff3610100860182611e27565b50610120830151612008610120860182611e27565b5061014083015161201d610140860182611f1c565b506101608301518482036101608601526120378282611e96565b9150508091505092915050565b6000602082019050818103600083015261205e8184611f2b565b905092915050565b61206f81611dc4565b82525050565b600060208201905061208a6000830184612066565b92915050565b600080604083850312156120a7576120a6611dba565b5b60006120b585828601611de5565b92505060206120c685828601611de5565b9150509250929050565b610120820160008201516120e76000850182611e27565b5060208201516120fa6020850182611e27565b50604082015161210d6040850182611e27565b5060608201516121206060850182611e27565b5060808201516121336080850182611e27565b5060a082015161214660a0850182611e27565b5060c082015161215960c0850182611e27565b5060e082015161216c60e0850182611e27565b50610100820151612181610100850182611f01565b50505050565b60006101208201905061219d60008301846120d0565b92915050565b60006121ae82611ecf565b9050919050565b6121be816121a3565b81146121c957600080fd5b50565b6000813590506121db816121b5565b92915050565b6000602082840312156121f7576121f6611dba565b5b6000612205848285016121cc565b91505092915050565b600081519050919050565b600082825260208201905092915050565b6000819050602082019050919050565b600060c0830160008301516122526000860182611e27565b506020830151848203602086015261226a8282611e96565b915050604083015161227f6040860182611e27565b5060608301516122926060860182611e27565b5060808301516122a56080860182611e27565b5060a08301516122b860a0860182611e27565b508091505092915050565b60006122cf838361223a565b905092915050565b6000602082019050919050565b60006122ef8261220e565b6122f98185612219565b93508360208202850161230b8561222a565b8060005b85811015612347578484038952815161232885826122c3565b9450612333836122d7565b925060208a0199505060018101905061230f565b50829750879550505050505092915050565b6000602082019050818103600083015261237381846122e4565b905092915050565b600081519050919050565b600082825260208201905092915050565b6000819050602082019050919050565b6000610180830160008301516123c06000860182611e27565b50602083015184820360208601526123d88282611e96565b915050604083015184820360408601526123f28282611e96565b91505060608301516124076060860182611f01565b506080830151848203608086015261241f8282611e96565b91505060a083015161243460a0860182611e27565b5060c083015161244760c0860182611e27565b5060e083015161245a60e0860182611e27565b5061010083015161246f610100860182611e27565b50610120830151612484610120860182611e27565b50610140830151612499610140860182611f1c565b506101608301518482036101608601526124b38282611e96565b9150508091505092915050565b60006124cc83836123a7565b905092915050565b6000602082019050919050565b60006124ec8261237b565b6124f68185612386565b93508360208202850161250885612397565b8060005b85811015612544578484038952815161252585826124c0565b9450612530836124d4565b925060208a0199505060018101905061250c565b50829750879550505050505092915050565b6000602082019050818103600083015261257081846124e1565b905092915050565b600080fd5b600080fd5b7f4e487b7100000000000000000000000000000000000000000000000000000000600052604160045260246000fd5b6125ba82611e85565b810181811067ffffffffffffffff821117156125d9576125d8612582565b5b80604052505050565b60006125ec611db0565b90506125f882826125b1565b919050565b600067ffffffffffffffff82111561261857612617612582565b5b61262182611e85565b9050602081019050919050565b82818337600083830152505050565b600061265061264b846125fd565b6125e2565b90508281526020810184848401111561266c5761266b61257d565b5b61267784828561262e565b509392505050565b600082601f83011261269457612693612578565b5b81356126a484826020860161263d565b91505092915050565b6126b681611f10565b81146126c157600080fd5b50565b6000813590506126d3816126ad565b92915050565b600080600080600080600060e0888a0312156126f8576126f7611dba565b5b600088013567ffffffffffffffff81111561271657612715611dbf565b5b6127228a828b0161267f565b975050602088013567ffffffffffffffff81111561274357612742611dbf565b5b61274f8a828b0161267f565b965050604088013567ffffffffffffffff8111156127705761276f611dbf565b5b61277c8a828b0161267f565b955050606061278d8a828b01611de5565b945050608061279e8a828b01611de5565b93505060a06127af8a828b016126c4565b92505060c088013567ffffffffffffffff8111156127d0576127cf611dbf565b5b6127dc8a828b0161267f565b91505092959891949750929550565b7f4e487b7100000000000000000000000000000000000000000000000000000000600052603260045260246000fd5b600082825260208201905092915050565b7f436f6d706169676e20486173204265656e20436c6f7365640000000000000000600082015250565b600061286160188361281a565b915061286c8261282b565b602082019050919050565b6000602082019050818103600083015261289081612854565b9050919050565b7f4e487b7100000000000000000000000000000000000000000000000000000000600052601160045260246000fd5b60006128d182611dc4565b91506128dc83611dc4565b9250827fffffffffffffffffffffffffffffffffffffffffffffffffffffffffffffffff0382111561291157612910612897565b5b828201905092915050565b600061292782611dc4565b91507fffffffffffffffffffffffffffffffffffffffffffffffffffffffffffffffff82141561295a57612959612897565b5b600182019050919050565b7f4e487b7100000000000000000000000000000000000000000000000000000000600052602260045260246000fd5b600060028204905060018216806129ac57607f821691505b602082108114156129c0576129bf612965565b5b50919050565b7f596f752048617665204e6f20436f6e747269627574696f6e20496e205468697360008201527f20436f6d706169676e0000000000000000000000000000000000000000000000602082015250565b6000612a2260298361281a565b9150612a2d826129c6565b604082019050919050565b60006020820190508181036000830152612a5181612a15565b9050919050565b7f5468697320436f6d706169676e20686173206265656e20636c6f736564206e6f60008201527f7720796f752063616e7420726566756e64206974000000000000000000000000602082015250565b6000612ab460348361281a565b9150612abf82612a58565b604082019050919050565b60006020820190508181036000830152612ae381612aa7565b9050919050565b6000612af582611dc4565b9150612b0083611dc4565b925082821015612b1357612b12612897565b5b828203905092915050565b6000612b2982611dc4565b91506000821415612b3d57612b3c612897565b5b600182039050919050565b7f596f7520417265204e6f74204f776e6572204f6620746869732050726f6a656360008201527f7400000000000000000000000000000000000000000000000000000000000000602082015250565b6000612ba460218361281a565b9150612baf82612b48565b604082019050919050565b60006020820190508181036000830152612bd381612b97565b9050919050565b7f46756e64732041726520416c726561647920436f6c6c65637465640000000000600082015250565b6000612c10601b8361281a565b9150612c1b82612bda565b602082019050919050565b60006020820190508181036000830152612c3f81612c03565b9050919050565b7f446561644c696e65204469646e6f74204d617463686564000000000000000000600082015250565b6000612c7c60178361281a565b9150612c8782612c46565b602082019050919050565b60006020820190508181036000830152612cab81612c6f565b9050919050565b7f4e487b7100000000000000000000000000000000000000000000000000000000600052601260045260246000fd5b6000612cec82611dc4565b9150612cf783611dc4565b925082612d0757612d06612cb2565b5b828204905092915050565b6000612d1d82611dc4565b9150612d2883611dc4565b9250817fffffffffffffffffffffffffffffffffffffffffffffffffffffffffffffffff0483118215151615612d6157612d60612897565b5b82820290509291505056fea2646970667358221220e0c9affb1fa6f6315df61171189256a50b03f869656ff33121b6c8a979630ef464736f6c634300080b0033",
  "immutableReferences": {},
  "source": "// SPDX-License-Identifier: MIT\r\npragma solidity ^0.8.0;\r\npragma experimental ABIEncoderV2;\r\ncontract Crowdfunding{\r\n\r\n    constructor() {\r\n     contractInfo.owner=payable(msg.sender);\r\n    }\r\n\r\n    struct Projects {\r\n        uint projectID;\r\n        string projectTitle;\r\n        string projectDesc;\r\n        address payable projectOwner;\r\n        string category;\r\n        uint target;\r\n        uint currentBalance;\r\n        uint contributorsNum;\r\n        uint deadline;\r\n        uint compaignStatus;\r\n        bool emergency;\r\n        string thumbnail;\r\n}\r\n\r\n\r\n\r\nstruct DoantionsDetails{\r\nuint donationAmount;\r\nstring projectTitle;\r\nuint projectDeadline;\r\nuint projectId;\r\nuint donationTime;\r\nuint donationStatus;\r\n}\r\n\r\nstruct ContractInfo{\r\nuint totalFundCollection;\r\nuint currentBalance;\r\nuint totalProjects;\r\nuint targetAchives;\r\nuint totalDonations;\r\nuint totalWithdrawamount;\r\nuint totalRefund;\r\nuint totalFeeCollected;\r\naddress payable owner;\r\n}\r\n\r\nContractInfo contractInfo;\r\nProjects[] project;\r\nmapping(address=>DoantionsDetails[]) myDonations;\r\nmapping(address=>uint) donationNo;\r\nuint totalCommission;\r\nfunction CreateProject( string memory _projectTitle,string memory _projectDesc,string memory _category,uint _target,uint _deadline,bool _emergency,string memory _thumbnail) public {\r\n\r\n    project.push();\r\n    project[contractInfo.totalProjects].projectID=contractInfo.totalProjects;\r\n    project[contractInfo.totalProjects].projectTitle=_projectTitle;\r\n    project[contractInfo.totalProjects].projectDesc=_projectDesc;\r\n    project[contractInfo.totalProjects].category=_category;\r\n    project[contractInfo.totalProjects].target=_target;\r\n    project[contractInfo.totalProjects].deadline=_deadline;\r\n    project[contractInfo.totalProjects].projectOwner=payable(msg.sender);\r\n    project[contractInfo.totalProjects].emergency=_emergency;\r\n    project[contractInfo.totalProjects].thumbnail=_thumbnail;\r\n    contractInfo.totalProjects++;\r\n    \r\n\r\n}\r\n\r\n\r\n\r\nfunction donateFund(uint _projectId) public payable{\r\n  \r\n  require(project[_projectId].compaignStatus==0 ,\"Compaign Has Been Closed\");\r\n    project[_projectId].currentBalance=project[_projectId].currentBalance+msg.value;  \r\n    project[_projectId].contributorsNum++;\r\n    myDonations[msg.sender].push();\r\n    myDonations[msg.sender][donationNo[msg.sender]].donationAmount=msg.value;\r\n    myDonations[msg.sender][donationNo[msg.sender]].projectId=_projectId;\r\n    myDonations[msg.sender][donationNo[msg.sender]].projectTitle=project[_projectId].projectTitle;\r\n    myDonations[msg.sender][donationNo[msg.sender]].projectDeadline=project[_projectId].deadline;\r\n    myDonations[msg.sender][donationNo[msg.sender]].donationTime=block.timestamp;\r\n    donationNo[msg.sender]++;\r\n\r\n    contractInfo.totalFundCollection=contractInfo.totalFundCollection+msg.value;\r\n    contractInfo.currentBalance=address(this).balance;\r\n    contractInfo.totalDonations++;\r\n    if(project[_projectId].currentBalance>=project[_projectId].target){\r\n    project[_projectId].compaignStatus=1;\r\n    contractInfo.targetAchives++;\r\n    }\r\n   else if(project[_projectId].deadline<=block.timestamp){\r\n    project[_projectId].compaignStatus=2;\r\n    }\r\n   \r\n\r\n}\r\n\r\n\r\nfunction withDrawFunds(uint _projectId) public payable{\r\n\r\n    require(msg.sender==project[_projectId].projectOwner,\"You Are Not Owner Of this Project\");\r\n    require(project[_projectId].compaignStatus!=3,\"Funds Are Already Collected\");\r\n    require(block.timestamp>=project[_projectId].deadline,\"DeadLine Didnot Matched\");\r\n    uint fee;\r\n    if(project[_projectId].emergency==true)\r\n    {\r\n     fee=(project[_projectId].currentBalance/1000)*40;\r\n    }\r\n    else{\r\n           fee=(project[_projectId].currentBalance/1000)*15;\r\n  \r\n    }\r\n    uint finalAmount=project[_projectId].currentBalance-fee;\r\n    project[_projectId].projectOwner.transfer(finalAmount);\r\n    contractInfo.owner.transfer(fee);\r\n    totalCommission=totalCommission+fee;\r\n    project[_projectId].compaignStatus=3;\r\n    contractInfo.currentBalance=address(this).balance;\r\n    contractInfo.totalWithdrawamount= contractInfo.totalWithdrawamount+finalAmount;\r\n    contractInfo.totalFeeCollected=contractInfo.totalFeeCollected+fee;\r\n    \r\n\r\n}\r\n\r\nfunction refund(uint _projectId, uint _refundId) public payable{\r\n    require(donationNo[msg.sender]>0,\"You Have No Contribution In This Compaign\");\r\n    require(block.timestamp<=project[_projectId].deadline,\"This Compaign has been closed now you cant refund it\");\r\n    payable(msg.sender).transfer(myDonations[msg.sender][_refundId].donationAmount);\r\n    project[_projectId].currentBalance= project[_projectId].currentBalance-myDonations[msg.sender][_refundId].donationAmount;\r\n    myDonations[msg.sender][_refundId].donationStatus=1;\r\n    project[_projectId].contributorsNum--;\r\n    contractInfo.currentBalance=address(this).balance;\r\n    contractInfo.totalRefund=contractInfo.totalRefund+myDonations[msg.sender][_refundId].donationAmount;\r\n      if(project[_projectId].currentBalance<project[_projectId].target){\r\n    project[_projectId].compaignStatus=0;\r\n    \r\n    }\r\n}\r\n\r\n// function getContractBalance() public view returns(uint){\r\n\r\n// return address(this).balance;\r\n// }\r\n\r\n\r\n// function getProjectBalance(uint _projectId) public view returns(uint){\r\n\r\n//     return project[_projectId].currentBalance;\r\n// }\r\n\r\n\r\n\r\n\r\nfunction getContractInfo() public view returns(ContractInfo memory )\r\n{\r\n    return contractInfo;\r\n}\r\n\r\n\r\nfunction getSingleProject(uint _projectId) public view returns(Projects memory){\r\n\r\n\r\n        return project[_projectId];\r\n}\r\n\r\nfunction getProjects() public view returns(Projects[] memory){\r\n\r\nreturn project;\r\n\r\n} \r\n\r\n function getDonationData(address user) public view returns(DoantionsDetails[] memory)\r\n {\r\n\r\nreturn myDonations[user];\r\n}\r\n\r\n\r\n// function ChangeContractOwner(address _newOwner) public {\r\n\r\n// require(msg.sender==owner,\" Only owners Are Allowed To Perform This Actions\");\r\n// owner=payable (_newOwner);\r\n// }\r\n// function ChangeProjectOwner(address _newOwner,uint _projectId) public {\r\n\r\n// require(msg.sender==project[\r\n//     _projectId].projectOwner,\" Only Project owners Are Allowed To Perform This Actions\");\r\n// project[_projectId].projectOwner=payable (_newOwner);\r\n// }\r\n\r\nfunction getTotalCommission() public view returns(uint) {\r\n\r\n    return totalCommission;\r\n}\r\n}\r\n",
  "sourcePath": "C:\\Users\\syedm\\OneDrive\\Desktop\\BLockchain\\Croed-Funding\\contracts\\CrowdFunding.sol",
  "compiler": {
    "name": "solc",
    "version": "0.8.11+commit.d7f03943.Emscripten.clang"
  },
  "schemaVersion": "3.4.4",
  "updatedAt": "2022-01-25T07:29:53.138Z",
  "networkType": "ethereum",
  "devdoc": {
    "kind": "dev",
    "methods": {},
    "version": 1
  },
  "userdoc": {
    "kind": "user",
    "methods": {},
    "version": 1
  }
}